:020000040800F2
:100000000050002021020008270200082B020008EF
:1000100043020008470200085F02000800000000D9
:10002000000000000000000000000000770200084F
:100030007B020008000000007F020008ED080008B5
:100040009102000891020008910200089102000844
:100050009102000891020008910200089102000834
:100060009102000891020008910200089102000824
:100070009102000891020008910200089102000814
:100080009102000891020008910200089102000804
:1000900091020008910200089102000891020008F4
:1000A00091020008910200089102000891020008E4
:1000B00091020008910200089102000891020008D4
:1000C00091020008910200089102000891020008C4
:1000D00091020008A9090008910200089102000895
:1000E000910200089102000891020008000000003F
:1000F0000000000000000000000000000000000000
:1001000000000000000000005FF808F100B583B0B7
:1001100000F0DEF8304B314A1360314A1360314B46
:10012000314A32498B4204D21168196004330432D7
:10013000F7E72A4B1A682E4B9A4200D0FEE7284B6D
:100140001A682C4B9A42F9D1234B2B4A13602B4A45
:1001500013602B4B02E000221A600433294A9342B9
:10016000F9D3254B1B6813B9244B1B6803B1FEE779
:1001700000F0BAF8694601A800F0A2F8224C234B1F
:10018000E41AA4100025AC4214DC214C214BE41AE3
:10019000A4100025AC4213DC0099019800F03EFC4D
:1001A00005461D4C1D4BE41AA410002C0EDC2846FD
:1001B00000F084F8154B53F8253098470135E2E7F5
:1001C000144B53F8253098470135E3E7013C134BB6
:1001D00053F824309847E8E7BABADECA0000002096
:1001E0002800002000000020DC0A00082C0000206D
:1001F00078563412325476982C0000207401002076
:100200002C00002078010020BC020008BC0200087D
:10021000BC020008BC020008BC020008BC020008C6
:1002200008B5FFF773FF00BEFEE71EF0040F0CBF1A
:10023000EFF30880EFF309807146124A104700BEC1
:10024000FEE700BEFEE71EF0040F0CBFEFF30880D0
:10025000EFF3098071460C4A104700BEFEE71EF01E
:10026000040F0CBFEFF30880EFF309807146074AD3
:10027000104700BEFEE700BEFEE700BEFEE700BE80
:10028000FEE770473F0200085B02000873020008A7
:0402900000BEFEE7C7
:10029400DC0A0008000000202C000020DC0A000812
:1002A40000000000000000002C0000207801002065
:0802B400000000000000000042
:1002BC00FEE7000001230360014B0B60704700BF99
:1002CC000400002008B500F073F8024A024B9A6053
:1002DC0008BD00BF0000000800ED00E008B500F00C
:1002EC008FF808BD82B00023019300932C4A136849
:1002FC0043F4803313602A4B1B6803F400330093E0
:10030C00019B01330193009B1BB9019BB3F5A06FBB
:10031C00F1D1234B1B6813F4003F06D0012300934B
:10032C00009B012B04D002B0704700230093F7E729
:10033C001C4B1A6842F010021A601A6822F0030271
:10034C001A601A6842F002021A60A3F580535A68C8
:10035C005A605A685A605A6842F480625A605A6805
:10036C0022F47C125A605A6842F4E8125A601A68F5
:10037C0042F080721A600A4B1B6813F0007FFAD0AF
:10038C00074B5A6822F003025A605A6842F0020284
:10039C005A60034B5B6803F00C03082BF9D1C2E7DE
:1003AC00001002400020024008B5FFF79BFF08BD7B
:1003BC0008B5104B1A6842F001021A6059680E4ACF
:1003CC000A405A601A6822F0847222F480321A6051
:1003DC001A6822F480221A605A6822F4FE025A60CB
:1003EC004FF41F029A60FFF7DFFF044B4FF00062DF
:1003FC009A6008BD001002400000FFF800ED00E01C
:10040C001F4B5B6803F00C03042B15D0082B17D083
:10041C001BB11C4B1C4A1A6002E01A4B1A4A1A6098
:10042C00174B5B68C3F30313184AD35CDAB2154954
:10043C000B68D3400B607047124B134A1A60EFE7FE
:10044C000F4A53685268C3F38343023312F4803F5C
:10045C000AD00B4A526812F4003F0BD00C4A02FB34
:10046C0003F3084A1360DBE7094A02FB03F3054A6E
:10047C001360D5E7044A02FB03F3024A1360CFE78B
:10048C00001002401C00002000127A000C0000201A
:10049C0000093D00154BDB6813F0010FFAD1134B2B
:1004AC001B6913F0800F05D0104B114A5A6002F1F2
:1004BC0088325A600D4B1A6942F002021A618002AE
:1004CC0000F1006058611A6942F040021A61074B52
:1004DC00DB6813F0010FFAD1044BDA6842F020020A
:1004EC00DA601A6922F002021A6170470020024099
:1004FC002301674510B5042404E02046FFF7CAFF2A
:10050C000134E4B23F2CF8D910BD000030B482B0F5
:10051C001A4BDB6813F0010FFAD1184B1B6913F05F
:10052C00800F05D0154B164C5C6004F188345C6070
:10053C0000241DE0114D2B6943F002032B6131F8AF
:10054C001430ADF80630BDF806309BB220F8023BF3
:10055C000A4BDB6813F0010FFAD1084BDD6845F04C
:10056C002005DD601D6925F001051D610134E4B233
:10057C009442DFD302B030BC704700BF0020024071
:10058C002301674510B4012829D018B102284BD09B
:10059C0010BC7047072913D90F29F9D8A1F1080409
:1005AC00E4B234480368A4000F21A140C9430B40B6
:1005BC00036003680B4002FA04F119430160E7E79A
:1005CC002D48046889000F238B40DB431C400460DA
:1005DC000468234002FA01F119430160D8E70729A6
:1005EC0013D90F29D4D8A1F10800C0B2234C236829
:1005FC0080000F218140C9430B40236023680B40CE
:10060C0002FA00F119432160C2E71D480468890011
:10061C000F238B40DB431C4004600468234002FA28
:10062C0001F119430160B3E7072913D90F29AFD89A
:10063C00A1F10803DBB2134C20689B000F219940F9
:10064C00C943084020602068084002FA03F10143C6
:10065C0021609DE70C48046889000F238B40DB4325
:10066C001C4004600468234002FA01F11943016044
:10067C008EE700BF0408014000080140040C014053
:10068C00000C014004100140001001400246A0F192
:10069C003003D8B2092802D9A2F13700C0B2704792
:1006AC002DE9F84F06464078FFF7F0FF0746B07883
:1006BC00FFF7ECFF40EA0717FFB2F078FFF7E6FF11
:1006CC0004463079FFF7E2FF05467079FFF7DEFF4D
:1006DC008046B079FFF7DAFF1F4A538840EA03409F
:1006EC0040EA081848EA052848EA0438C2F80080AD
:1006FC00002527E04FEA850B0BF10903F05CFFF7AF
:10070C00C5FF81460BF10A03F05CFFF7BFFF824681
:10071C000BF10B03F05CFFF7B9FF04460BF10C0B6C
:10072C0016F80B00FFF7B2FF240344EA002000B2D6
:10073C0040EA0A0000B240EA0910084B23F8150001
:10074C000135EDB27A08AA42D4D804494046FFF7E5
:10075C00DDFEBDE8F88F00BF200000203400002033
:10076C00F8B50546C078FFF791FF06462879FFF7E4
:10077C008DFF07466879FFF789FF0446A879FFF7D4
:10078C0085FF064A1388240644EA007040EA0750A5
:10079C0040EA064018431060F8BD00BF200000205E
:1007AC0008B5037A302B02D0342B03D008BDFFF7E9
:1007BC0077FFFBE7FFF7D4FFF8E70000134B1A684D
:1007CC0022F001021A601A6822F002021A60104A22
:1007DC00136843F0010313600D4B1B685B08FBD0DF
:1007EC000A4B1A6822F0F0021A601A681A601A682A
:1007FC0022F4E0621A601A681A601A6822F46052D5
:10080C001A601A6842F440521A6070470410024091
:10081C000010024001280BD010B1022810D07047F4
:10082C000B480368012202FA01F119430160704779
:10083C0008480368012202FA01F11943016070476C
:10084C0005480368012202FA01F11943016070475F
:10085C00141002401C10024018100240064B1A687B
:10086C0022F004021A601A6822F001021A601A6857
:10087C0022F002021A60704710E000E0094B186089
:10088C000023094A1360094A1160094A1370094B85
:10089C001A6842F001021A601A6842F002021A60E9
:1008AC00704700BF14E000E018E000E0FC000020FE
:1008BC002400002010E000E00023074A13600432FB
:1008CC001360064B1A6822F001021A601A6822F0B3
:1008DC0002021A60704700BF14E000E010E000E074
:1008EC0008B50B4B1B6898470A4B1B680A4B1B78C7
:1008FC0063B90A4A1360043A1360064B1A6822F073
:10090C0001021A601A6822F002021A6008BD00BFC8
:10091C00FC00002010E000E02400002018E000E0C3
:10092C000D4B40F241329A60DA6822F48052DA6060
:10093C00DA6822F48062DA60DA6842F00802DA607F
:10094C00DA6842F00402DA6000221A61DA6842F4D2
:10095C000052DA60704700BF00380140054B1B683D
:10096C0013F0400FFAD0034B1A6822F040021A60C1
:10097C005860704700380140074B1B6813F0200F7C
:10098C0008D0054B5A6802701A6822F020021A60CF
:10099C0001207047002070470038014008B5104B0B
:1009AC001B6813F0200F0BD00E4B1B681BB10C4AAD
:1009BC005068C0B298470A4A136823F020031360AA
:1009CC00074B1B6813F0400F08D0074B1B6803B193
:1009DC009847034A136823F04003136008BD00BF17
:1009EC0000380140000100200401002008B5044B30
:1009FC00044A1A60044B1B68044A1360984708BDEC
:100A0C0008ED00E000100008041000080C010020A4
:100A1C0008B5FFF7D3FE02210846FFF7FBFE0E21B7
:100A2C000220FFF7F7FE04210020FFF7F3FE0A2255
:100A3C0009210020FFF7A6FD04220A210020FFF760
:100A4C00A1FDFFF76DFFFFF709FF1B491B48FFF7DF
:100A5C0015FF1B4B1B7873BB1A4B1B781A48184499
:100A6C00FFF78AFF0128F4D1FFF726FF154B1B78FF
:100A7C00154AD25C0A2A07D00133124A13700E4968
:100A8C000E48FFF7FBFEE4E7104B1B78012B0CD054
:100A9C000D48FFF785FE6F20FFF760FF6B20FFF717
:100AAC005DFF084B00221A70E9E7FFF723FD074BA7
:100ABC0000221A70ECE708BDF9090008C0E1E40057
:100ACC000901002008010020100100202500002051
:100ADC0078563412300000200000000000000000A6
:100AEC0000000000010203040607080900A24A04E2
:0C0AFC00000000080101FFFF3254769852
:040000050800010DE1
:00000001FF
